{
  "_format": "hh3-artifact-1",
  "contractName": "IoTDeviceRegistry",
  "sourceName": "contracts/IoTDeviceRegistry.sol",
  "abi": [
    {
      "anonymous": false,
      "inputs": [
        {
          "indexed": false,
          "internalType": "string",
          "name": "deviceId",
          "type": "string"
        },
        {
          "indexed": false,
          "internalType": "address",
          "name": "owner",
          "type": "address"
        }
      ],
      "name": "DeviceAuthenticated",
      "type": "event"
    },
    {
      "anonymous": false,
      "inputs": [
        {
          "indexed": false,
          "internalType": "string",
          "name": "deviceId",
          "type": "string"
        },
        {
          "indexed": false,
          "internalType": "address",
          "name": "owner",
          "type": "address"
        }
      ],
      "name": "DeviceDeAuthenticated",
      "type": "event"
    },
    {
      "anonymous": false,
      "inputs": [
        {
          "indexed": false,
          "internalType": "string",
          "name": "deviceId",
          "type": "string"
        },
        {
          "indexed": false,
          "internalType": "address",
          "name": "owner",
          "type": "address"
        }
      ],
      "name": "DeviceRegistered",
      "type": "event"
    },
    {
      "inputs": [
        {
          "internalType": "string",
          "name": "_deviceId",
          "type": "string"
        }
      ],
      "name": "authenticateIoTDevice",
      "outputs": [],
      "stateMutability": "nonpayable",
      "type": "function"
    },
    {
      "inputs": [
        {
          "internalType": "string",
          "name": "_deviceId",
          "type": "string"
        }
      ],
      "name": "deauthenticateIoTDevice",
      "outputs": [],
      "stateMutability": "nonpayable",
      "type": "function"
    },
    {
      "inputs": [
        {
          "internalType": "uint256",
          "name": "",
          "type": "uint256"
        }
      ],
      "name": "deviceIds",
      "outputs": [
        {
          "internalType": "string",
          "name": "",
          "type": "string"
        }
      ],
      "stateMutability": "view",
      "type": "function"
    },
    {
      "inputs": [
        {
          "internalType": "string",
          "name": "",
          "type": "string"
        }
      ],
      "name": "devices",
      "outputs": [
        {
          "internalType": "address",
          "name": "owner",
          "type": "address"
        },
        {
          "internalType": "bool",
          "name": "authenticated",
          "type": "bool"
        }
      ],
      "stateMutability": "view",
      "type": "function"
    },
    {
      "inputs": [
        {
          "internalType": "string",
          "name": "_deviceId",
          "type": "string"
        }
      ],
      "name": "registerIoTDevice",
      "outputs": [],
      "stateMutability": "nonpayable",
      "type": "function"
    }
  ],
  "bytecode": "0x6080604052348015600e575f5ffd5b506114298061001c5f395ff3fe608060405234801561000f575f5ffd5b5060043610610055575f3560e01c8063222333961461005957806363acb21b1461008a578063a30a1a2e146100a6578063b4d7470d146100c2578063d4ad82fe146100de575b5f5ffd5b610073600480360381019061006e9190610a9a565b61010e565b604051610081929190610b3a565b60405180910390f35b6100a4600480360381019061009f9190610bbe565b610171565b005b6100c060048036038101906100bb9190610bbe565b610391565b005b6100dc60048036038101906100d79190610bbe565b61061c565b005b6100f860048036038101906100f39190610c3c565b6108a8565b6040516101059190610cc7565b60405180910390f35b6001818051602081018201805184825260208301602085012081835280955050505050505f91509050805f015f9054906101000a900473ffffffffffffffffffffffffffffffffffffffff1690805f0160149054906101000a900460ff16905082565b5f82829050116101b6576040517f08c379a00000000000000000000000000000000000000000000000000000000081526004016101ad90610d31565b60405180910390fd5b5f73ffffffffffffffffffffffffffffffffffffffff16600183836040516101df929190610d7d565b90815260200160405180910390205f015f9054906101000a900473ffffffffffffffffffffffffffffffffffffffff1673ffffffffffffffffffffffffffffffffffffffff1614610265576040517f08c379a000000000000000000000000000000000000000000000000000000000815260040161025c90610e05565b60405180910390fd5b60405180604001604052803373ffffffffffffffffffffffffffffffffffffffff1681526020015f1515815250600183836040516102a4929190610d7d565b90815260200160405180910390205f820151815f015f6101000a81548173ffffffffffffffffffffffffffffffffffffffff021916908373ffffffffffffffffffffffffffffffffffffffff1602179055506020820151815f0160146101000a81548160ff0219169083151502179055509050505f828290918060018154018082558091505060019003905f5260205f20015f90919290919290919290919250918261035192919061102a565b507f10fc4a53238f78d2e8ef8aa41bafb46e41f929f68f8f4233c365ef14b2f5ed5c82823360405161038593929190611123565b60405180910390a15050565b5f82829050116103d6576040517f08c379a00000000000000000000000000000000000000000000000000000000081526004016103cd90610d31565b60405180910390fd5b5f73ffffffffffffffffffffffffffffffffffffffff16600183836040516103ff929190610d7d565b90815260200160405180910390205f015f9054906101000a900473ffffffffffffffffffffffffffffffffffffffff1673ffffffffffffffffffffffffffffffffffffffff1603610485576040517f08c379a000000000000000000000000000000000000000000000000000000000815260040161047c906111c3565b60405180910390fd5b3373ffffffffffffffffffffffffffffffffffffffff16600183836040516104ae929190610d7d565b90815260200160405180910390205f015f9054906101000a900473ffffffffffffffffffffffffffffffffffffffff1673ffffffffffffffffffffffffffffffffffffffff1614610534576040517f08c379a000000000000000000000000000000000000000000000000000000000815260040161052b90611251565b60405180910390fd5b60018282604051610546929190610d7d565b90815260200160405180910390205f0160149054906101000a900460ff166105a3576040517f08c379a000000000000000000000000000000000000000000000000000000000815260040161059a906112b9565b60405180910390fd5b5f600183836040516105b6929190610d7d565b90815260200160405180910390205f0160146101000a81548160ff0219169083151502179055507f1f95156ca12082b5985c9907d87b4a96ecdab4f48f0314a7991e1d23a82327d582823360405161061093929190611123565b60405180910390a15050565b5f8282905011610661576040517f08c379a000000000000000000000000000000000000000000000000000000000815260040161065890610d31565b60405180910390fd5b5f73ffffffffffffffffffffffffffffffffffffffff166001838360405161068a929190610d7d565b90815260200160405180910390205f015f9054906101000a900473ffffffffffffffffffffffffffffffffffffffff1673ffffffffffffffffffffffffffffffffffffffff1603610710576040517f08c379a0000000000000000000000000000000000000000000000000000000008152600401610707906111c3565b60405180910390fd5b3373ffffffffffffffffffffffffffffffffffffffff1660018383604051610739929190610d7d565b90815260200160405180910390205f015f9054906101000a900473ffffffffffffffffffffffffffffffffffffffff1673ffffffffffffffffffffffffffffffffffffffff16146107bf576040517f08c379a00000000000000000000000000000000000000000000000000000000081526004016107b690611347565b60405180910390fd5b600182826040516107d1929190610d7d565b90815260200160405180910390205f0160149054906101000a900460ff161561082f576040517f08c379a0000000000000000000000000000000000000000000000000000000008152600401610826906113d5565b60405180910390fd5b6001808383604051610842929190610d7d565b90815260200160405180910390205f0160146101000a81548160ff0219169083151502179055507fd47b200ad7c74309b5f0ebf47a9ece7a0dbb2b6ef3334d46f549f6c6618642de82823360405161089c93929190611123565b60405180910390a15050565b5f81815481106108b6575f80fd5b905f5260205f20015f9150905080546108ce90610e5a565b80601f01602080910402602001604051908101604052809291908181526020018280546108fa90610e5a565b80156109455780601f1061091c57610100808354040283529160200191610945565b820191905f5260205f20905b81548152906001019060200180831161092857829003601f168201915b505050505081565b5f604051905090565b5f5ffd5b5f5ffd5b5f5ffd5b5f5ffd5b5f601f19601f8301169050919050565b7f4e487b71000000000000000000000000000000000000000000000000000000005f52604160045260245ffd5b6109ac82610966565b810181811067ffffffffffffffff821117156109cb576109ca610976565b5b80604052505050565b5f6109dd61094d565b90506109e982826109a3565b919050565b5f67ffffffffffffffff821115610a0857610a07610976565b5b610a1182610966565b9050602081019050919050565b828183375f83830152505050565b5f610a3e610a39846109ee565b6109d4565b905082815260208101848484011115610a5a57610a59610962565b5b610a65848285610a1e565b509392505050565b5f82601f830112610a8157610a8061095e565b5b8135610a91848260208601610a2c565b91505092915050565b5f60208284031215610aaf57610aae610956565b5b5f82013567ffffffffffffffff811115610acc57610acb61095a565b5b610ad884828501610a6d565b91505092915050565b5f73ffffffffffffffffffffffffffffffffffffffff82169050919050565b5f610b0a82610ae1565b9050919050565b610b1a81610b00565b82525050565b5f8115159050919050565b610b3481610b20565b82525050565b5f604082019050610b4d5f830185610b11565b610b5a6020830184610b2b565b9392505050565b5f5ffd5b5f5ffd5b5f5f83601f840112610b7e57610b7d61095e565b5b8235905067ffffffffffffffff811115610b9b57610b9a610b61565b5b602083019150836001820283011115610bb757610bb6610b65565b5b9250929050565b5f5f60208385031215610bd457610bd3610956565b5b5f83013567ffffffffffffffff811115610bf157610bf061095a565b5b610bfd85828601610b69565b92509250509250929050565b5f819050919050565b610c1b81610c09565b8114610c25575f5ffd5b50565b5f81359050610c3681610c12565b92915050565b5f60208284031215610c5157610c50610956565b5b5f610c5e84828501610c28565b91505092915050565b5f81519050919050565b5f82825260208201905092915050565b8281835e5f83830152505050565b5f610c9982610c67565b610ca38185610c71565b9350610cb3818560208601610c81565b610cbc81610966565b840191505092915050565b5f6020820190508181035f830152610cdf8184610c8f565b905092915050565b7f496e76616c6964206465766963652049442121000000000000000000000000005f82015250565b5f610d1b601383610c71565b9150610d2682610ce7565b602082019050919050565b5f6020820190508181035f830152610d4881610d0f565b9050919050565b5f81905092915050565b5f610d648385610d4f565b9350610d71838584610a1e565b82840190509392505050565b5f610d89828486610d59565b91508190509392505050565b7f44657669636520616c72656164792065786973747320696e20746865207379735f8201527f74656d2121000000000000000000000000000000000000000000000000000000602082015250565b5f610def602583610c71565b9150610dfa82610d95565b604082019050919050565b5f6020820190508181035f830152610e1c81610de3565b9050919050565b5f82905092915050565b7f4e487b71000000000000000000000000000000000000000000000000000000005f52602260045260245ffd5b5f6002820490506001821680610e7157607f821691505b602082108103610e8457610e83610e2d565b5b50919050565b5f819050815f5260205f209050919050565b5f6020601f8301049050919050565b5f82821b905092915050565b5f60088302610ee67fffffffffffffffffffffffffffffffffffffffffffffffffffffffffffffffff82610eab565b610ef08683610eab565b95508019841693508086168417925050509392505050565b5f819050919050565b5f610f2b610f26610f2184610c09565b610f08565b610c09565b9050919050565b5f819050919050565b610f4483610f11565b610f58610f5082610f32565b848454610eb7565b825550505050565b5f5f905090565b610f6f610f60565b610f7a818484610f3b565b505050565b5b81811015610f9d57610f925f82610f67565b600181019050610f80565b5050565b601f821115610fe257610fb381610e8a565b610fbc84610e9c565b81016020851015610fcb578190505b610fdf610fd785610e9c565b830182610f7f565b50505b505050565b5f82821c905092915050565b5f6110025f1984600802610fe7565b1980831691505092915050565b5f61101a8383610ff3565b9150826002028217905092915050565b6110348383610e23565b67ffffffffffffffff81111561104d5761104c610976565b5b6110578254610e5a565b611062828285610fa1565b5f601f83116001811461108f575f841561107d578287013590505b611087858261100f565b8655506110ee565b601f19841661109d86610e8a565b5f5b828110156110c45784890135825560018201915060208501945060208101905061109f565b868310156110e157848901356110dd601f891682610ff3565b8355505b6001600288020188555050505b50505050505050565b5f6111028385610c71565b935061110f838584610a1e565b61111883610966565b840190509392505050565b5f6040820190508181035f83015261113c8185876110f7565b905061114b6020830184610b11565b949350505050565b7f446576696365206e6f74207265676973746572656420696e20746865207379735f8201527f74656d2121000000000000000000000000000000000000000000000000000000602082015250565b5f6111ad602583610c71565b91506111b882611153565b604082019050919050565b5f6020820190508181035f8301526111da816111a1565b9050919050565b7f4f6e6c7920646576696365206f776e65722063616e20646561757468656e74695f8201527f6361746520746865206465766963652121000000000000000000000000000000602082015250565b5f61123b603183610c71565b9150611246826111e1565b604082019050919050565b5f6020820190508181035f8301526112688161122f565b9050919050565b7f446576696365206973206e6f742061757468656e7469636174656421210000005f82015250565b5f6112a3601d83610c71565b91506112ae8261126f565b602082019050919050565b5f6020820190508181035f8301526112d081611297565b9050919050565b7f4f6e6c7920646576696365206f776e65722063616e2061757468656e746963615f8201527f7465207468652064657669636521210000000000000000000000000000000000602082015250565b5f611331602f83610c71565b915061133c826112d7565b604082019050919050565b5f6020820190508181035f83015261135e81611325565b9050919050565b7f44657669636520697320616c72656164792061757468656e74696361746564215f8201527f2100000000000000000000000000000000000000000000000000000000000000602082015250565b5f6113bf602183610c71565b91506113ca82611365565b604082019050919050565b5f6020820190508181035f8301526113ec816113b3565b905091905056fea2646970667358221220fd5eff1220ff629bf320592f28655de5e50c595ca24e42bdf0f860cd4684f72664736f6c634300081c0033",
  "linkReferences": {},
  "deployedLinkReferences": {},
  "immutableReferences": {},
  "inputSourceName": "project/contracts/IoTDeviceRegistry.sol",
  "buildInfoId": "solc-0_8_28-340c83bd3784535d5f47751737dc9dfe3bb4c967"
}